:020000040800F2
:100000002804002045010008D7030008CF0300089A
:10001000D30300088D010008050600080000000059
:100020000000000000000000000000008104000843
:1000300091010008000000005D0400086D05000843
:100040005F0100085F0100085F0100085F01000810
:100050005F0100085F010008930100085F010008CC
:100060005F0100085F0100085F0100085F010008F0
:100070005F0100085F0100085F0100085F010008E0
:100080005F0100085F0100085F0100085F010008D0
:100090005F0100085F0100085F0100085F010008C0
:1000A0005F0100085F0100085F0100085F010008B0
:1000B0005F0100085F0100085F0100085F010008A0
:1000C0005F0100085F0100085F0100085F01000890
:1000D0005F0100085F0100085F0100085F01000880
:1000E0005F0100085F0100085F0100085F01000870
:1000F0005F0100085F0100085F0100085F01000860
:100100005F0100085F0100085F0100085F0100084F
:100110005F0100085F0100085F0100085F0100083F
:100120005F0100085F0100085F0100085F0100082F
:10013000DFF80CD000F018F8004800470909000863
:10014000280400200648804706480047FEE7FEE7EF
:10015000FEE7FEE7FEE7FEE7FEE7FEE7FEE7FEE777
:10016000A505000831010008064C074D06E0E068CF
:1001700040F0010394E8070098471034AC42F6D3EE
:10018000FFF7DAFF440A0008640A000800BFFEE730
:10019000704710B5012000F00DF820B100F082FB8F
:1001A000012000F001F810BD01490860704700000F
:1001B00014040140014600200022074B1B6803EA9B
:1001C0000102054B14331B680B4013B10AB1012027
:1001D00000E0002070470000000401400021234996
:1001E0008279002A3AD00A46126803689A430B467D
:1001F0001A600A1D126803689A430B1D1A6002797F
:1002000011440A6803681A430A60184A08321268DF
:1002100003689A43154B08331A601A1D1268036865
:100220009A43124B0C331A604279102A0ED11A1FCE
:10023000126803681A430D4B08331A601A1D1268BE
:1002400003681A43094B0C331A600DE007494279E1
:1002500011440A6803681A430A6005E002791144F0
:100260000A6803689A430A6070470000000401406E
:1002700030B500228B071C0F0F2303FA04F20B4B3F
:100280008C1053F824309343084C8D1044F82530DB
:1002900023468C1053F824308C07240F00FA04F402
:1002A0002343024C8D1044F8253030BD0800014036
:1002B0002DE9F041024600250026002000230024FD
:1002C000002791F803C00CF00F0591F803C00CF063
:1002D000100CBCF1000F03D091F802C04CEA0505E8
:1002E00091F800C0BCF1000F31D0146800202BE061
:1002F0004FF0010C0CFA00F3B1F800C00CEA030651
:100300009E4220D183004FF00F0C0CFA03F7BC4340
:1003100005FA03FC4CEA040491F803C0BCF1280F71
:1003200006D14FF0010C0CFA00FCC2F814C00AE030
:1003300091F803C0BCF1480F05D14FF0010C0CFA45
:1003400000FCC2F810C0401C0828D1D31460B1F8DA
:1003500000C0BCF1FF0F34DD546800202EE000F136
:10036000080C4FF0010808FA0CF3B1F800C00CEAD1
:1003700003069E4221D183004FF00F0C0CFA03F7C5
:10038000BC4305FA03FC4CEA040491F803C0BCF139
:10039000280F05D100F1080C08FA0CF8C2F81480F7
:1003A00091F803C0BCF1480F07D100F1080C4FF0E1
:1003B000010808FA0CF8C2F81080401C0828CED3B7
:1003C0005460BDE8F081416170470161704700BF32
:1003D000FEE700BFFEE7704770B5002100230F2243
:1003E000C47804B3154C246804F4E064C4F5E064F4
:1003F000210AC1F10403CA40447804FA03F1847865
:100400001440214309010E4C0678A155047804F0EC
:100410001F050124AC4005786D11AD0005F1E02504
:10042000C5F8004109E0047804F01F050124AC4040
:10043000044D0678761145F8264070BD0CED00E0BD
:1004400000E400E080E100E002490143024A11605B
:10045000704700000000FA050CED00E07047000056
:1004600029B1064A92690243044B9A6104E0034AA7
:1004700092698243014B9A6170470000001002406C
:10048000704710B500F002F810BD00000CB5002058
:10049000019000903348006840F480303149086092
:1004A00000BF3048006800F4003000900198401C04
:1004B0000190009818B90198B0F5A06FF1D12948C2
:1004C000006800F4003010B10120009001E000202D
:1004D00000900098012843D12348006840F01000A4
:1004E000214908600846006820F0030008600846BB
:1004F000006840F0020008601A48406819494860E6
:100500000846406848600846406840F4806048609B
:100510000846406820F47C1048600846406840F473
:10052000E81048600846006840F08070086000BF2E
:100530000C48006800F000700028F9D009484068B5
:1005400020F00300074948600846406840F0020078
:10055000486000BF0348406800F00C000828F9D14B
:100560000CBD0000001002400020024010B50B48F6
:1005700000680B490968884201D100F03FF907483B
:10058000006828B105480068401E0449086003E07F
:1005900000F0E6F900F036F910BD00001C00002064
:1005A0002000002010B51348006840F001001149F8
:1005B000086008464068104908400E4948600846EF
:1005C00000680E4908400B4908600846006820F49E
:1005D000802008600846406820F4FE0048604FF420
:1005E0001F008860FFF74DFF4FF00060044908606E
:1005F00010BD0000001002400000FFF8FFFFF6FEF3
:1006000008ED00E000BFFEE702E008C8121F08C1C5
:10061000002AFAD170477047002001E001C1121F83
:10062000002AFBD170471CB500F028F800F078F9DB
:1006300000210846FFF71CFE0120009000208DF8E5
:10064000040008208DF8050001208DF8060068469A
:10065000FFF7C4FD0D210220FFF70AFE4FF4005002
:10066000009000208DF8040008208DF8050001207E
:100670008DF806006846FFF7B1FD1CBD08B50121E5
:100680000520FFF7EDFE0120ADF8000004208DF8F5
:10069000030069460948FFF70BFE01211020FFF710
:1006A000DFFE4FF40050ADF8000004208DF8030089
:1006B00069460348FFF7FCFD08BD00000008014043
:1006C0000010014010B520210748FFF77EFE0121F0
:1006D0000548FFF77AFE02210348FFF774FE022067
:1006E0000249086010BD0000000C01401400002009
:1006F00005480068401C044908600846006807284F
:1007000001D10020086070471400002010B520219E
:100710000748FFF75AFE01210548FFF754FE022162
:100720000348FFF750FE05200249086010BD000095
:10073000000C01401400002010B520210548FFF7EF
:1007400044FE01210348FFF740FE02210148FFF764
:100750003CFE10BD000C014008B500201A4908609D
:1007600001210820FFF77CFE2020ADF800001020BA
:100770008DF8030003208DF8020069461348FFF747
:1007800097FD01210820FFF76BFE0120ADF8000066
:1007900010208DF8030003208DF8020069460B48F5
:1007A000FFF786FD01210820FFF75AFE0220ADF871
:1007B000000010208DF8030003208DF80200694628
:1007C0000248FFF775FD08BD14000020000C014031
:1007D00010B520210748FFF7F8FD01210548FFF774
:1007E000F2FD02210348FFF7F0FD012002490860F5
:1007F00010BD0000000C01401400002010B5FFF7F0
:100800009BFF10BD10B51048006807281AD2DFE81A
:1008100000F004070A0D1013160000F02DF811E087
:10082000FFF7D6FF0EE0FFF74DFF0BE000F056F8A4
:1008300008E000F00BF805E0FFF768FF02E000F0C9
:1008400037F800BF00BF10BD1400002010B52021F4
:100850000748FFF7B8FD01210548FFF7B6FD022163
:100860000348FFF7B0FD04200249086010BD0000F6
:10087000000C01401400002010B520210748FFF7AC
:10088000A2FD01210548FFF7A0FD02210348FFF763
:100890009CFD00200249086010BD0000000C0140D2
:1008A0001400002010B5FFF723FFFFF7ABFF10BDCA
:1008B00010B520210748FFF786FD01210548FFF705
:1008C00082FD02210348FFF77EFD062002490860F1
:1008D00010BD0000000C01401400002010B52021C4
:1008E0000748FFF770FD01210548FFF76CFD022165
:1008F0000348FFF76AFD03200249086010BD0000AD
:10090000000C014014000020FFF726FFFFF760FFF6
:100910004FF4FA7000F052F8FFF785FE00BFFEE7D3
:1009200008B54FF4C060FFF78FFD06208DF800007A
:1009300001208DF801008DF802008DF80300684653
:10094000FFF74AFD28208DF8000001208DF80100F6
:100950008DF802008DF803006846FFF73DFD08BDE5
:1009600010B512480068124908601248006880B14A
:1009700011480068401C104908600C4800680B389A
:100980000968884211D200200A490860FFF7B0FECA
:100990000BE009480068401E0749086008460068E7
:1009A0000B2802D201200349086010BD1800002066
:1009B0001C000020240000202000002070B5044608
:1009C000642C00D264241948046000681849086047
:1009D000FFF7C6FF17480068174AB0FBF2F1B1F104
:1009E000807F01D301201DE021F07F40401E4FF0A9
:1009F000E022506150170F22002807DA13071E0E5D
:100A00000E4B00F00F052D1F5E5503E013071D0E62
:100A10000B4B1D5400BF00204FF0E02290610720D7
:100A20001061002008B100BFFEE770BD1800002073
:100A30002000002000000020A086010018ED00E04A
:100A400000E400E0640A0008000000202800000024
:100A5000080600088C0A0008280000200004000096
:100A60001806000800A24A04000000000000000070
:100A7000010203040607080900000000000000004E
:0C0A80000000000000000000000000006A
:0400000508000131BD
:00000001FF
